:100000000C9462000C948A000C948A000C948A0070
:100010000C948A000C948A000C948A000C948A0038
:100020000C948A000C948A000C948A000C948A0028
:100030000C948A000C948A000C948A000C948A0018
:100040000C949F020C948A000C940F030C94E90208
:100050000C948A000C948A000C948A000C948A00F8
:100060000C948A000C948A000000000023002600F3
:10007000290000000000240027002A0000000000E2
:10008000250028002B0004040404040404040202D4
:100090000202020203030303030301020408102007
:1000A0004080010204081020010204081020000012
:1000B0000008000201000003040700000000000027
:1000C0000000820611241FBECFEFD8E0DEBFCDBFF7
:1000D00011E0A0E0B1E0E2E4F2E102C005900D928F
:1000E000A232B107D9F721E0A2E2B1E001C01D922E
:1000F000A83EB207E1F710E0C2E6D0E004C02197C5
:10010000FE010E941409C136D107C9F70E94860377
:100110000C941F090C94000090E0FC01E255FF4F85
:100120002491FC01E656FF4F3491FC01EA57FF4F42
:10013000E491EE2309F43CC0222339F1233091F0FD
:1001400038F42130A9F0223001F584B58F7D12C03A
:10015000273091F02830A1F02430B9F4809180004C
:100160008F7D03C0809180008F77809380000DC0C9
:1001700084B58F7784BD09C08091B0008F7703C0AC
:100180008091B0008F7D8093B000F0E0EE0FFF1FF4
:10019000E458FF4FA591B4919FB7F894611104C042
:1001A0008C913095382302C0EC913E2B3C939FBF3D
:1001B0000895CF93DF9390E0FC01E656FF4F249122
:1001C000FC01EA57FF4F8491882361F190E0880F8A
:1001D000991FFC01EE58FF4FC591D491FC01E458E2
:1001E000FF4FA591B491611109C09FB7F894888120
:1001F000209582238883EC912E230BC0623061F41A
:100200009FB7F8948881322F309583238883EC91AF
:100210002E2B2C939FBF06C08FB7F894E8812E2B0E
:1002200028838FBFDF91CF9108953FB7F8948091D5
:10023000470190914801A0914901B0914A0126B52A
:10024000A89B05C02F3F19F00196A11DB11D3FBF0E
:10025000BA2FA92F982F8827820F911DA11DB11D9C
:10026000BC01CD0142E0660F771F881F991F4A9598
:10027000D1F70895CF92DF92EF92FF920F931F93E1
:10028000CF93DF936C017A018B01C0E0D0E0CE15F3
:10029000DF0581F0D8016D918D01D601ED91FC91C2
:1002A0000190F081E02DC6010995892B11F021966E
:1002B000EECF7E01C701DF91CF911F910F91FF908B
:1002C000EF90DF90CF900895089580E090E008953A
:1002D000FC01538D448D252F30E0842F90E0821B4C
:1002E000930B541710F0CF96089501970895FC01D1
:1002F000918D828D981761F0828DDF01A80FB11D5D
:100300005D968C91928D9F5F9F73928F90E0089580
:100310008FEF9FEF0895FC01918D828D981731F03A
:10032000828DE80FF11D858D90E008958FEF9FEF8E
:100330000895FC01918D228D892F90E0805C9F4F64
:10034000821B91098F73992708958BE491E00E9495
:10035000990121E0892B09F420E0822F0895FC0106
:10036000848DDF01A80FB11DA35ABF4F2C91848D3E
:1003700090E001968F739927848FA689B7892C9373
:10038000A089B1898C91837080648C93938D848DC6
:10039000981306C00288F389E02D80818F7D8083C9
:1003A0000895EF92FF920F931F93CF93DF93EC0189
:1003B00081E0888F9B8D8C8D981305C0E889F98921
:1003C000808185FD26C0F62E0B8D10E00F5F1F4F3C
:1003D0000F731127E02E8C8DE8120CC00FB607FCAE
:1003E000FACFE889F989808185FFF5CFCE010E9497
:1003F000AF01F1CF8B8DFE01E80FF11DE35AFF4FE6
:10040000F0829FB7F8940B8FEA89FB898081806224
:100410000AC09FB7F894EE89FF896083E889F9895B
:1004200080818370806480839FBF81E090E0DF9152
:10043000CF911F910F91FF90EF900895CF93DF938D
:10044000EC01888D8823C9F0EA89FB89808185FDCC
:1004500005C0A889B9898C9186FD0FC00FB607FC2D
:10046000F5CF808185FFF2CFA889B9898C9185FF6E
:10047000EDCFCE010E94AF01E7CFDF91CF9108957C
:1004800080E090E0892B29F00E94A50181110C9455
:1004900000000895009769F0FC0101900020E9F741
:1004A0003197AF01481B590BBC018BE491E00C94D0
:1004B0003A0180E090E008958F929F92AF92BF92B0
:1004C0000F931F93CF93DF93CDB7DEB7A1970FB6EE
:1004D000F894DEBF0FBECDBF19A2423008F44AE047
:1004E0008E010F5D1F4F842E912CA12CB12CA501E4
:1004F00094010E94F208E62FB901CA0101501109C6
:10050000EA3014F4E05D01C0E95CD801EC93232BE0
:10051000242B252B61F7C8010E944A02A1960FB631
:10052000F894DEBF0FBECDBFDF91CF911F910F9129
:10053000BF90AF909F908F9008950E941A091F92CC
:100540000F920FB60F9211242F933F938F939F9387
:10055000AF93BF938091430190914401A0914501D5
:10056000B09146013091420123E0230F2D3720F452
:100570000196A11DB11D05C026E8230F0296A11DFD
:10058000B11D209342018093430190934401A093B5
:100590004501B09346018091470190914801A09197
:1005A0004901B0914A010196A11DB11D80934701F7
:1005B00090934801A0934901B0934A01BF91AF9134
:1005C0009F918F913F912F910F900FBE0F901F9091
:1005D00018951F920F920FB60F9211242F933F93ED
:1005E0004F935F936F937F938F939F93AF93BF933B
:1005F000EF93FF938BE491E00E94AF01FF91EF91A5
:10060000BF91AF919F918F917F916F915F914F912A
:100610003F912F910F900FBE0F901F9018951F9232
:100620000F920FB60F9211242F938F939F93EF93F6
:10063000FF93E0915B01F0915C018081E0916101A9
:10064000F091620182FD12C09081809164018F5F00
:100650008F7320916501821751F0E0916401F0E001
:10066000E55BFE4F958F8093640101C08081FF910F
:10067000EF919F918F912F910F900FBE0F901F9030
:100680001895CF92DF92EF92FF920F931F93E82F6E
:10069000F92F05C0015011092109310961F190813B
:1006A00096239417B9F305C00150110921093109A6
:1006B00011F1908196239413F7CFC12CD12CE12C0A
:1006C000F12C0AC08FEFC81AD80AE80AF80A0C15EC
:1006D0001D052E053F0579F080818623841791F34F
:1006E0006C2D7D2D8E2D9F2D1F910F91FF90EF90E2
:1006F000DF90CF90089560E070E080E090E01F917F
:100700000F91FF90EF90DF90CF900895CF93DF93FC
:1007100000D000D0CDB7DEB7789484B5826084BDB8
:1007200084B5816084BD85B5826085BD85B58160F5
:1007300085BD80916E00816080936E001092810073
:10074000809181008260809381008091810081602E
:1007500080938100809180008160809380008091EF
:10076000B10084608093B1008091B000816080937B
:10077000B00080917A00846080937A0080917A0042
:10078000826080937A0080917A00816080937A0001
:1007900080917A00806880937A001092C10061E0B5
:1007A00089E00E94D90060E08AE00E94D900E091CF
:1007B0005B01F0915C0182E08083E0915701F09150
:1007C00058011082E0915901F0915A018FEC808319
:1007D00010926301E0915F01F091600186E08083F7
:1007E000E0915D01F0915E01808180618083E09104
:1007F0005D01F0915E01808188608083E0915D0100
:10080000F0915E01808180688083E0915D01F091CC
:100810005E0180818F7D808380E090E0A0E8BFE36F
:100820008093360190933701A0933801B09339013A
:10083000109232011092330110923401109235015E
:10084000109226011092270110922801109229017E
:1008500080E090E0A6E9B3E480933A0190933B01F5
:10086000A0933C01B0933D0110922A0110922B01FC
:1008700010922C0110922D0188EE93E090933F018D
:1008800080933E0193E0292E312C60E089E00E94A4
:100890008C00C1010197F1F761E089E00E948C00B2
:1008A00083E290E00197F1F760E089E00E948C001C
:1008B000E4EAF0E06491E0E9F0E08491E82FF0E010
:1008C000EE0FFF1FE859FF4F8591949100E412E469
:1008D0002FE030E0462F0E9441036115710581052C
:1008E000910549F0DC01CB010196A11DB11DBC01B0
:1008F000CD019F7003C060E070E0CB010E94CB0788
:100900002BE734E14EEA5EE30E94800820E030E00D
:1009100040E05FE30E9480080E94930770934101CA
:10092000609340016B01770FEE08FF08F7FE0EC0E1
:100930006DE28BE491E00E94D10166277727CB011D
:100940006C197D098E099F094AE003C04AE0C7017E
:10095000B6010E945C0282E191E00E944A0260912D
:10096000400170914101072E000C880B990B0E94E9
:10097000CB0720913A0130913B0140913C015091CD
:100980003D010E94AF066B017C0120913601309140
:10099000370140913801509139010E9480086983E4
:1009A0007A838B839C8360913E0170913F01072E77
:1009B000000C880B990B0E94CB074B015C01209126
:1009C0003201309133014091340150913501C7011A
:1009D000B6010E948008A50194010E94800820E0D1
:1009E00030E04AE754E40E94210720912E01309123
:1009F0002F0140913001509131010E94B0062B012E
:100A00003C0160932E0170932F01809330019093ED
:100A1000310120912A0130912B0140912C015091FC
:100A20002D01C701B6010E94AF0620912601309129
:100A3000270140912801509129010E94800820E05F
:100A400030E04AE754E40E948008A50194010E9426
:100A500021074B015C01C0922A01D0922B01E09248
:100A60002C01F0922D01A301920169817A818B8181
:100A70009C810E94B006A50194010E94B0066B0102
:100A80007C014B015C0160932201709323018093F0
:100A90002401909325019B01AC010E94ED0888235D
:100AA00019F085E191E01AC026013701E89477F842
:100AB0002FEF3FEF4FE75FE7C301B2010E94ED0860
:100AC00081110FC02FEF3FEF4FE75FE7C301B20186
:100AD0000E941C0718162CF489E191E00E944A023A
:100AE00078C02FEF3FEF4FE75FE4C701B6010E94E8
:100AF0007B0818161CF48DE191E0F0CF2FEF3FEF4B
:100B00004FE75FECC701B6010E941C0787FDF3CFDA
:100B100020E030E0A901C701B6010E941C0787FF51
:100B20000BC06DE28BE491E00E94D10146015701B8
:100B3000B7FAB094B7F8B0942AE037ED43EA5BE334
:100B4000C501B4010E94B0064B015C010E949A07E6
:100B50006B017C010E94C9079B01AC01C501B40176
:100B60000E94AF064B015C014AE0C701B6010E943A
:100B70005C026EE28BE491E00E94D10120E030E063
:100B800040E251E4C501B4010E9480084B015C01C0
:100B90000E949A076B01E12CF12C4AE0C701B601D3
:100BA0000E945C02C701B6010E94C9079B01AC010B
:100BB000C501B4010E94AF0620E030E040E251E4FC
:100BC0000E9480080E949A0780E090E04AE00E941C
:100BD0005C0282E191E00E944A02609122017091E0
:100BE000230180912401909125010E9493074B01DC
:100BF0005C017B0161E081E00E94D90081149104D5
:100C000011F460E005C0FFEF8F16910429F461E054
:100C100081E00E948C0044C0EFEAF0E084918330D0
:100C2000F9F048F48130B9F08230A1F584B58062E2
:100C300084BD88BC35C08730E9F0883019F1843034
:100C400049F58091800080628093800090928B00B3
:100C500080928A0025C084B5806884BD87BC20C08E
:100C600080918000806880938000909289008092BB
:100C7000880016C08091B00080688093B000809298
:100C8000B3000EC08091B00080628093B00080926B
:100C9000B40006C0F0E8EF16F1040CF0B8CFB1CF05
:100CA000C0903E01D0903F010D2C000CEE08FF08D3
:100CB0000E9415014B015C01C114D104E104F1044F
:100CC000F1F00E941501DC01CB0188199909AA09EC
:100CD000BB09883E9340A105B10570F321E0C21A1B
:100CE000D108E108F10888EE880E83E0981EA11C67
:100CF000B11CC114D104E104F10419F7DDCF0E9445
:100D00004002C3CDEBE4F1E01382128288EE93E05F
:100D1000A0E0B0E084839583A683B78384E091E06C
:100D20009183808385EC90E09587848784EC90E0C4
:100D30009787868780EC90E0918B808B81EC90E0A8
:100D4000938B828B82EC90E0958B848B86EC90E089
:100D5000978B868B118E128E138E148E0895505899
:100D6000BB27AA270E94C7060C9441080E9433089B
:100D700038F00E943A0820F039F49F3F19F426F425
:100D80000C9430080EF4E095E7FB0C942A08E92F48
:100D90000E94520858F3BA17620773078407950731
:100DA00020F079F4A6F50C9474080EF4E0950B2E5F
:100DB000BA2FA02D0B01B90190010C01CA01A001AD
:100DC0001124FF27591B99F0593F50F4503E68F108
:100DD0001A16F040A22F232F342F4427585FF3CF49
:100DE000469537952795A795F0405395C9F77EF41A
:100DF0001F16BA0B620B730B840BBAF09150A1F063
:100E0000FF0FBB1F661F771F881FC2F70EC0BA0FE8
:100E1000621F731F841F48F4879577956795B79570
:100E2000F7959E3F08F0B0CF9395880F08F099276B
:100E3000EE0F9795879508950E94060808F481E0C3
:100E400008950E9435070C9441080E943A0858F012
:100E50000E94330840F029F45F3F29F00C942A08DF
:100E600051110C9475080C9430080E94520868F3D4
:100E70009923B1F3552391F3951B550BBB27AA2753
:100E800062177307840738F09F5F5F4F220F331F8D
:100E9000441FAA1FA9F335D00E2E3AF0E0E832D055
:100EA00091505040E695001CCAF72BD0FE2F29D058
:100EB000660F771F881FBB1F261737074807AB072A
:100EC000B0E809F0BB0B802DBF01FF2793585F4F9F
:100ED0003AF09E3F510578F00C942A080C9475085E
:100EE0005F3FE4F3983ED4F3869577956795B79581
:100EF000F7959F5FC9F7880F911D9695879597F98C
:100F00000895E1E0660F771F881FBB1F6217730704
:100F10008407BA0720F0621B730B840BBA0BEE1F19
:100F200088F7E09508950E949A076894B1110C948F
:100F3000750808950E945A0888F09F5798F0B92FB5
:100F40009927B751B0F0E1F0660F771F881F991FFE
:100F50001AF0BA95C9F714C0B13091F00E94740824
:100F6000B1E008950C947408672F782F8827B85F34
:100F700039F0B93FCCF3869577956795B395D9F756
:100F80003EF490958095709561957F4F8F4F9F4F60
:100F90000895E89409C097FB3EF49095809570956C
:100FA00061957F4F8F4F9F4F9923A9F0F92F96E9B5
:100FB000BB279395F695879577956795B795F1112A
:100FC000F8CFFAF4BB0F11F460FF1BC06F5F7F4FC7
:100FD0008F4F9F4F16C0882311F096E911C07723D9
:100FE00021F09EE8872F762F05C0662371F096E8E2
:100FF000862F70E060E02AF09A95660F771F881FB1
:10100000DAF7880F9695879597F90895990F000854
:10101000550FAA0BE0E8FEEF16161706E807F907CA
:10102000C0F012161306E407F50798F0621B730B65
:10103000840B950B39F40A2661F0232B242B252BE6
:1010400021F408950A2609F4A140A6958FEF811D89
:10105000811D089597F99F6780E870E060E008952A
:101060009FEF80EC089500240A94161617061806C0
:101070000906089500240A9412161306140605069C
:101080000895092E0394000C11F4882352F0BB0F2D
:1010900040F4BF2B11F460FF04C06F5F7F4F8F4F90
:1010A0009F4F089557FD9058440F551F59F05F3FCB
:1010B00071F04795880F97FB991F61F09F3F79F07A
:1010C00087950895121613061406551FF2CF4695FC
:1010D000F1DF08C0161617061806991FF1CF86957E
:1010E0007105610508940895E894BB276627772762
:1010F000CB0197F908950E94060808F48FEF089530
:101100000E9493080C9441080E94330838F00E9412
:101110003A0820F0952311F00C942A080C9430081A
:1011200011240C9475080E94520870F3959FC1F326
:10113000950F50E0551F629FF001729FBB27F00D85
:10114000B11D639FAA27F00DB11DAA1F649F6627DA
:10115000B00DA11D661F829F2227B00DA11D621F29
:10116000739FB00DA11D621F839FA00D611D221FE3
:10117000749F3327A00D611D231F849F600D211DC7
:10118000822F762F6A2F11249F5750409AF0F1F04A
:1011900088234AF0EE0FFF1FBB1F661F771F881FB3
:1011A00091505040A9F79E3F510580F00C942A08B9
:1011B0000C9475085F3FE4F3983ED4F386957795D9
:1011C0006795B795F795E7959F5FC1F7FE2B880F59
:1011D000911D9695879597F908950E940608880BAA
:1011E000990B0895A1E21A2EAA1BBB1BFD010DC08D
:1011F000AA1FBB1FEE1FFF1FA217B307E407F507C7
:1012000020F0A21BB30BE40BF50B661F771F881FA2
:10121000991F1A9469F760957095809590959B0138
:10122000AC01BD01CF010895EE0FFF1F0590F491B1
:10123000E02D099481E090E0F8940C941F09F89453
:02124000FFCFDE
:1012420000000000D1013A0168011E0299017701F4
:101252008B010D0A006E616E00696E66006F766624
:0212620000008A
:00000001FF
